:020000040800F2
:10000000B83F0020010100080501000807010008B1
:10001000090100080B0100080D01000800000000A4
:1000200000000000000000000000000011010008B6
:100030000F01000800000000431A0008A102000898
:10004000BF020008C1020008C3020008C502000880
:100050001D0300081F0300082103000823030008F4
:100060002503000827030008290300086D03000882
:100070006F0300087103000873030008750300088C
:1000800077030008790300087B0300087D0300085C
:100090007F0300088103000883030008850300082C
:1000A00087030008890300088B0300088D030008FC
:1000B0008F030008910300089303000895030008CC
:1000C00097030008990300089B0300089D0300089C
:1000D0009F030008A1030008A3030008A50300086C
:1000E000A7030008A9030008AB03000800000000F4
:1000F0000000000000000000000000000000000000
:1001000004480047FEE7FEE7FEE7FEE7FEE7FEE7FE
:10011000FEE700001901000800F002F800F05CF8AA
:100120000AA090E8000C82448344AAF10107DA4552
:1001300001D100F051F8AFF2090EBAE80F0013F048
:10014000010F18BFFB1A43F00103184750F30000DA
:1001500070F300000A444FF0000C10F8013B13F05C
:10016000070408BF10F8014B1D1108BF10F8015B10
:10017000641E05D010F8016B641E01F8016BF9D103
:1001800013F0080F1EBF10F8014BAD1C0C1B09D15A
:100190006D1E58BF01F801CBFAD505E014F8016BCC
:1001A00001F8016B6D1EF9D59142D6D3704700005E
:1001B0000023002400250026103A28BF78C1FBD870
:1001C000520728BF30C148BF0B6070471FB50EF003
:1001D00052F81FBD10B510BD0DF0FDFA1146FFF726
:1001E000F5FF00F02AF90DF06FF903B4FFF7F2FF05
:1001F00003BC0DF0E9FA000002480349034A044B2E
:1002000070470000B83B0020B83F0020B83D0020F8
:10021000B83D002030BF704720BF704740BF7047D7
:10022000BFF36F8F7047BFF34F8F7047BFF35F8F80
:10023000704701DF7047EFF31480704780F3148834
:10024000BFF36F8F7047EFF30980704780F3098821
:100250007047EFF30880704780F30888704762B6F4
:10026000704772B67047EFF31080704771B67047F1
:1002700061B67047EFF31380704780F311887047C1
:10028000EFF31280704740BA704700BA7047000021
:100290007047FEE7FEE7FEE7FEE7704770477047EE
:1002A00010B501F0ADFB4A4A1178491C117001F0FC
:1002B000ABFB03F0C9FFBDE8104003F006BF704779
:1002C0007047704710B500F02EFD42494FF461644D
:1002D0000844A0421DD200F026FDB0FBF4F104FB5F
:1002E0001100A0F6D4503C2813D200F01CFDB0FB46
:1002F000F4F104FB11003C21B0FBF1F201FB120010
:100300003B2806D100F04AFD002000F015FD00F06A
:1003100045FDBDE81040012000F06DBD70477047FD
:10032000704770477047704710B501F069FB284966
:100330000A78521C0A7001F067FB27490888401CA4
:100340000880C20725484FF4005102D001F088FA16
:1003500001E001F087FA102001F03CFB10B1102001
:1003600001F046FBBDE8104003F0AFBE7047704798
:1003700070477047704770477047704770477047C5
:1003800070477047704770477047704770477047B5
:1003900070477047704770477047704770477047A5
:1003A0007047704770477047704770477047704795
:1003B0007047704770477047704770477047704785
:1003C000704770477047704770477047704700002C
:1003D0001200002090BCFEFF000000200010014031
:1003E0003D4D00242E150022641CE4B20A23114660
:1003F000104601F0B0FE07F03FF8E0064FF0400174
:10040000284606D501F02CFA3146284601F02AFA92
:10041000E9E701F027FA3146284601F021FAE2E740
:1004200008F0B8FAFCE700F02AF903F0D7FE00F074
:1004300024F8FF2002F028FAFBE700B587B000217E
:10044000264801F09DF803F0A3FD802202920320CC
:100450000021CDE90310224B224ACDE900030346D7
:10046000214801F0F8FF05AA20A1032002F04AF973
:1004700003F0A1FE07B0002000BD70B5194886B09A
:100480004FF48076001DCDE901060520002500907F
:100490000324CDE903540346174A2946174801F0BF
:1004A000DAFF05AA16A1052002F02CF91248174A16
:1004B000001DCDE9010604200090CDE90354034658
:1004C0000021134801F0C7FF05AA12A1042002F081
:1004D00019F906B070BD0000001C014000000408BE
:1004E000E0010020DC03002027040008537461723F
:1004F00074205461736B0000DC07002021040008A5
:100500005573657220492F4600000000DC0B002067
:10051000E10300084B6579626F61726400000000BE
:1005200030B587B00121042000F00DFF0121082023
:1005300000F009FF0121402000F005FF012180208B
:1005400000F001FF0121080200F0FDFE0121080377
:1005500000F0F9FEE020ADF8000003248DF8024021
:1005600018208DF803006946A64801F010F94FF4F1
:100570000060ADF800008DF8024010208DF80300F7
:100580006946A14801F003F92025ADF800508DF827
:10059000024048208DF8030069469C4801F0F7F8B6
:1005A000ADF8005004208DF803006946984801F02A
:1005B000EEF80020ADF804004FF48271ADF806109B
:1005C000ADF80C002901ADF80E102821ADF810107F
:1005D000ADF80800ADF80A00ADF8120007208D4C08
:1005E000ADF8140001A9204600F074FC012120465A
:1005F00000F0EDFC07B030BDF8B5874E4FF47074D5
:100600002146304601F02CF9ADF8004010248DF859
:10061000034003258DF802506946304601F0B7F8D3
:100620000220ADF80000794F8DF803408DF802509C
:100630006946384601F0ABF80221384601F010F95E
:100640000420ADF800008DF803408DF80250694693
:10065000384601F09CF80421384601F001F96F0298
:10066000ADF800708DF803408DF8025069463046B1
:1006700001F08DF83946304601F0F2F8F8BD10B5BA
:1006800086B000F055FD4FF48034204600F068FD40
:1006900000F093FD614908700878012822D11020EC
:1006A00000F01EFB022000F009FB002000F0BEFD60
:1006B000002000F0C9FDA01100F0BFFD4FF4E011D3
:1006C000204600F09CFD012000F0A1FD392000F043
:1006D0005FFD0028FAD0022000F09CFD00F0A1FD93
:1006E0000828FBD1012140F2FD1000F02CFEFFF79D
:1006F00083FFFFF715FF684600F0DAFD01984FF41D
:100700007A71B0FBF1F000F08BFB042000F07CFB71
:10071000012000F089FB012000F098FB06B010BD1D
:10072000704710B54FF4A06000F098FE0022BDE8BD
:10073000104011463A4800F04EBF70B5354C0546A2
:100740000221204600F0AFFC0028F9D029462046BF
:1007500000F065FC0121204600F0A5FC0028F9D03E
:10076000204600F05EFCC0B270BD002100E0491CD4
:100770008142FCD3704770B5234E4FF40065294683
:10078000304601F06FF80A20FFF7EFFF9020FFF7E7
:10079000D4FF0A20FFF7E9FF0020FFF7CEFF040295
:1007A0000020FFF7CAFF204484B20A20FFF7DDFFD4
:1007B0002946304601F054F8E00870BD70B5124E7D
:1007C0004FF400652946304601F04CF80A20FFF747
:1007D000CCFFD020FFF7B1FF0A20FFF7C6FF0020B3
:1007E000FFF7ABFF04020020FFF7A7FF204484B20D
:1007F0000A20FFF7BAFF2946304601F031F8E00839
:1008000070BD00000008014000200140000C0140C4
:100810000010014000300140001C01400200002097
:100820009AC302004FF0204202EB800140B143F234
:10083000D20008606FF070404860C1F80401704752
:1008400043F2DB001060F5E710B5182340244FF0A9
:1008500020414FF0FC32102805D041F8803F4C6019
:100860008A60CA6010BD0B664C668A66CA6610BD97
:10087000F748182101604FF0000141604FF0FC3152
:100880008160C1600161704730B5D0E90112114348
:10089000D0E903231A431143426903681143826973
:1008A0001143C2691143026A1143426A1143826AC9
:1008B0001143C26A1143026B11434FF0204242F8C8
:1008C00023108168082906D1016802EB81010B68B9
:1008D00043F040030B60416BD1E9003443EA041359
:1008E0008C68CD68240244EA054423430C6943EA3A
:1008F00004534C69896943EA04630B43016802EBC2
:1009000081014B60816AB1F5804F07D000686FF0BC
:10091000704102EB8000C0F8041130BD816B0068AB
:10092000D1E9003443EA04138C68CD68240244EA18
:10093000054423430C6902EB800043EA04534C69ED
:10094000896943EA04630B43C0F8043130BD30B514
:10095000D0E901121143D0E903231A43114342693C
:100960001143826941EA4221C26941EA423141F0C0
:100970000804016AD1E9002342EA03228B68C968AE
:100980001B0443EA01610A43416AD1E9003543EAA5
:1009900005238D68C9682D0445EA01610B43016890
:1009A0004FF02040102904D040F8804F8260C3608F
:1009B00030BD04668266C36630BD10B5D0E9001252
:1009C00011438268C368520242EA43321143A04A8B
:1009D00011600169D1E9003443EA04238C68C968D5
:1009E0004FEA044444EA016143EA01039360416928
:1009F000D1E9003443EA04238C68C9684FEA04440F
:100A000044EA016143EA0103D3608069D0E900133D
:100A100041EA03218368C0684FEA034343EA006068
:100A200041EA0001116110BD10B500210222C0E9A8
:100A300000128160C16001614161D2028161C0E93F
:100A400007125200C0E90921C1620163436B0F2202
:100A50001A60436B5A60446BFF23A360446BE260EF
:100A6000446B2261446B6261446BA161846B2260C0
:100A7000846B6260846BA360836BDA60836B1A6142
:100A8000836B5A61806B816110BD10210160002170
:100A900041608160C160016141618161C161026A3F
:100AA000FC211160026A5160026A9160026AD160A1
:100AB000426A1160426A5160426A9160406AC16054
:100AC00070470021016041608160C1600269FC21C2
:100AD000116002695160026991600269D1604269E6
:100AE000116042695160426991604269D1608269D6
:100AF000116082695160826991608069C16070474C
:100B00004FF0204202EB80000029016802D041F042
:100B1000010101E04F4A1140016070474FF020424F
:100B200051B1102804D052F8800F40F004000AE0C0
:100B3000106E40F004000AE04649C91E102804D097
:100B400052F8800F084010607047106E0840106621
:100B500070473F490028086802D040F0040002E0D6
:100B60003C4AD21E1040086070474FF0204251B1FD
:100B7000102804D052F8800F40F040000AE0106EB8
:100B800040F040000AE033493F39102804D052F8C1
:100B9000800F084010607047106E08401066704764
:100BA0004FF02041102802D0D1F894007047486FD0
:100BB000704710B54FF480744FF0204382B1102875
:100BC00004D0A04205D103F1840304E0586E084329
:100BD0000FE003F1A403186840EA0100186010BD9B
:100BE000102804D0A04206D103F1840305E0586E1A
:100BF0008843586610BD03F1A403186820EA010079
:100C0000ECE7034600204FF02042102B08D0B3F54C
:100C1000807F07D0D2F8A4200A4200D0012070477C
:100C2000526EF9E7D2F88420F6E74FF02042102800
:100C300009D0B0F5807F0FD002F1A402106820EA3D
:100C4000010010607047506E884350667047000086
:100C5000A00000A0FEFF0F0002F18402EEE70346B1
:100C600000204FF02042102B0CD0B3F5807F0BD02A
:100C7000D2F8A4200A4202EAD101E7D00029E5D047
:100C80000120E3E7526EF5E7D2F88420F2E74FF057
:100C90002042102809D0B0F5807F0BD002F1A402C9
:100CA000106820EAD1001060D0E7506E20EAD10031
:100CB0005066CBE702F18402F2E700000D490A68B2
:100CC00002F038020A600A6802430A607047094964
:100CD0000A6822F008020A600A6802430A60704744
:100CE00004490A6822F010020A600A6802430A6096
:100CF0007047000000200240424A0029118801D0BC
:100D0000014300E08143118070473E48001D018887
:100D100041F01001018070473A48001D018821F020
:100D200010010180704737481C3000883549183160
:100D3000098840EA0140704700B50246FFF7E5FF29
:100D40003049100C18310880081D02805DF804EB52
:100D5000E2E700B50246FFF7D8FF2A49C2F3034095
:100D600008310880081D02805DF804EBD4E700B567
:100D70000246FFF7CAFF2349100C20310880081DE6
:100D800002805DF804EBC7E71E48103000880007BA
:100D9000010B1C4814300088084370471948001D97
:100DA00001888906FCD570471648001D018821F08E
:100DB0000801018001880907FCD570470146114AE6
:100DC0000020121D12880A4200D0012070470D49F0
:100DD000091D0A8882430A8070470A49091D09884B
:100DE000084A0140C9B21288024202D009B101206A
:100DF0007047002070470349091D0A8882430A8012
:100E000070470000002800404FF0E02104280869E6
:100E100003D020F004000861704740F00400FAE7B6
:100E20004FF0E021486170474FF0E021012804D0E5
:100E3000801C06D0002088617047086940F00100DE
:100E400002E0086920F00100086170474FF0E021DE
:100E50000028086902D040F0020001E020F0020002
:100E6000086170474FF0E02080697047024600201B
:100E7000D1084FF0E023022906D0D969012393401D
:100E80000B4200D0012070471969F7E7A74910B558
:100E9000401810D0B0F5806F10D0B0F5784F18D151
:100EA00001210C03204600F060FA2046BDE8104006
:100EB000002100F05ABA01218C0301E00121CC038A
:100EC000204600F05BFA2046BDE81040002100F00B
:100ED00055BA10BD30B502884C8802F441530A88D7
:100EE000CD8822438C882C4322430C8922434C8991
:100EF00022438C892243CC8922431A430280828B6D
:100F000022F400628283098A018230BDF0B5054671
:100F10000C4602200021AA8B85B001264FF2400327
:100F20001A40AA832884AF8B2289022A1DD0A08868
:100F300000B10226684600F0BBF9E088B0F5007FFA
:100F400029D0208971014143009800EB80004000C6
:100F5000B0FBF1F0401D80B20A21B0FBF1F000F0CF
:100F60000101401AC0F34F000902821EFE2A01D37C
:100F700002200021E288084302432A8420886188F5
:100F800062890843A18811430843384340F4006054
:100F9000A88305B0F0BD0098218900EB80004000D7
:100FA0000902D5E70021018041808180C180018153
:100FB00041818181C1810721018270470021018027
:100FC00041808180C18002220281418170470029D5
:100FD000018802D041F0400101E021F04001018090
:100FE00070470029818B02D041F4806101E021F437
:100FF000806181837047090901238B40002A828820
:1010000099B201D00A4300E08A4382807047002AE7
:10101000828801D00A4300E08A4382807047818140
:10102000704780897047A1F57E420188FF3A02D05F
:1010300041F4807101E021F4807101807047002942
:10104000818802D041F0040101E021F00401818097
:101050007047028822F40062028002880A430280FC
:101060007047018841F48051018070470029018850
:1010700002D041F4005101E021F400510180704799
:10108000012901D0008B7047808A7047008A704721
:10109000B1F5804F018803D021F480410180704771
:1010A00041F48041FAE70246002012890A4200D04A
:1010B00001207047202906D040290AD0082908D0ED
:1010C000C943018170470189018841F040010180D5
:1010D00070470089704710B501F00F03012404FA2E
:1010E00003F30246002009098C4091889BB2A4B208
:1010F000128921401A4202D0002900D0012010BDDF
:1011000055290AD056290ED053290CD001F00F02D0
:1011100001219140C943018170470189018841F053
:1011200040010180704700897047000000C8FFBF80
:10113000A448016841F0010101604168A24A1140E0
:1011400041600168A14A11400160016821F48021D9
:101150000160416821F4FE01416000218160704717
:1011600098490A6822F480320A600A6822F48022D0
:101170000A60B0F5803F07D0B0F5802F03D1086832
:1011800040F4A02008607047086840F48030F9E718
:101190000346002059098B4A01290AD002290AD0A6
:1011A000516A03F01F02012393400B4200D001203B
:1011B00070471168F5E7116AF3E730B5844C40F2E7
:1011C000FF153120FFF7E4FF20706068401C60606D
:1011D000207810B96068A842F3D13120FFF7D8FF1A
:1011E000002800D0012030BD764A116821F0F801B6
:1011F00041EAC00010607047764908607047714B43
:101200005A68084322F47C121043586070477149B1
:10121000086670476B4A516821F003010143516031
:1012200070476848406800F00C007047654A516894
:1012300021F0F001014351607047624A516821F486
:10124000E0610143516070475E4A516821F460518A
:1012500041EAC000506070475A4A0029517A01D0D3
:10126000014300E08143517270475B490860704759
:10127000544A516821F44041014351607047574935
:1012800000220A7001F82029012802D0042802D186
:10129000052081F82000704751490860704749498E
:1012A0000A6A02430A6270474D4944390860704730
:1012B000444A10B551684B4B11F00C0103D004297E
:1012C00001D0082901D0036011E05168022301F424
:1012D000701103EB9141536813F4803F02D05368BF
:1012E0009B0301D5404B00E03E4B594301605168E0
:1012F0003E4B01F0F00109095C5C0168E14041608E
:10130000546804F4E064240A1C5D21FA04F4846047
:10131000546804F46054E40A1B5DD940C16052680B
:10132000324B02F44042920B1B1F9A5CB1FBF2F16C
:10133000016110BD234A0029516901D0014300E039
:101340008143516170471F4A0029916901D00143CF
:1013500000E08143916170471A4A0029D16901D0A8
:10136000014300E08143D1617047164A0029D168EA
:1013700001D0014300E08143D1607047114A002948
:10138000116901D0014300E08143116170471449A4
:101390004039086070470F49C86470470949C871EF
:1013A00070470848416A41F0807141627047054AC0
:1013B0000146002092680A4200D00120704701498E
:1013C00088727047001002400000FFF8FFFFF6FE31
:1013D0000400002000004242D80042422010024097
:1013E0008004424200127A0000093D007EE30008BA
:1013F000B5490020431E0B606FF070424A60C1F88F
:101400000031C1F80421B14A014642F8201000F130
:1014100001000F28F9D37047AD4A4FF0206100203A
:101420001160121D01461060A94BAA4A08331A60C8
:101430001A1D1060121D1060121D42F82010401C71
:101440000328FAD3A24820300160A1494017243173
:101450000860091D0860091D086070479D49084320
:101460009B49083108607047F0B50F23C2780178B6
:1014700001264FF0E02742B3954A0832126802F481
:10148000E062C2F5E062120AC2F10404D34042787D
:10149000A24084781C40144323018A0721F00304EE
:1014A000D20E8A49934065182C68FF2191408C43E5
:1014B0000B401C432C60007800F01F018E40400957
:1014C00007EB8000C0F80061F0BD01F01F0086400E
:1014D000480907EB8000C0F88061F0BD0021017071
:1014E00041708170C1707047FEF7BBBEFEF7B7BE9A
:1014F000FEF7BCBEFEF7BCBE0001FEF7BEBEFEF7A7
:10150000BFBE73480068C0F309307047014601F060
:101510001F0301229A40002049094FF0E02303EB0A
:101520008101D1F800128A4300D1012070476A4935
:101530000860704700F01F020121914040094FF000
:10154000E02202EB8000C0F880127047604800681B
:10155000C0F309007047014601F01F0301229A40C1
:10156000002049094FF0E02303EB8101D1F800137B
:101570008A4300D1012070475548001F006870471A
:10158000564A114001435248001D016070475148BE
:101590004F49001D0831086070474E484C49401CB7
:1015A0000831086070474A4A0C320029116801D09E
:1015B000014300E081431160704700F01F020120E9
:1015C0009040434A20320029116801D0014300E0D5
:1015D00081431160704730B53D4BFF2408331B68D1
:1015E00003F4E063C3F5E0631B0ADC40C3F10405C8
:1015F000A94022400A43110100F0C0029309C0F340
:101600000120C0008140FF2282403148143000EBAD
:10161000830003689343036002680A43026030BD9D
:101620000146C1F3832201219140294A0020203242
:1016300012680A408A4200D101207047244900F014
:101640001F000B680122824013430B607047204942
:1016500000F01F000A68401E012383401A430A60FD
:1016600070470146C1F3833201219140184A00209E
:10167000203212680A408A4200D101207047C0F32C
:101680008141C0F3015229B1012906D010482C3004
:10169000006870470E482830FAE70D48243000688B
:1016A000D100C840022A02D000F00F007047C0B23B
:1016B0007047C0F3805018B1054834300068704757
:1016C00003483030FAE7000080E100E000E400E089
:1016D00004ED00E00000FA0500EF00E080FFFF1FCE
:1016E000894A10B5811A1315D41490422ED00DDCFE
:1016F000864940181CD0984221D0A0423BD10121FC
:101700001020FFF732FE002110200DE0994224D076
:10171000A14229D0B1F5406F2DD101210C02204604
:10172000FFF723FE00212046BDE81040FFF71DBE55
:1017300001210420FFF719FE00210420F4E7012114
:101740000820FFF712FE00210820EDE701212020EC
:10175000FFF70BFE00212020E6E701214020FFF7E4
:1017600004FE00214020DFE701218020FFF7FDFD7E
:1017700000218020D8E710BD10B501210846FFF7F1
:10178000F4FD0021BDE810400120FFF7EEBDF0B5EB
:10179000CC78002204F00F03E40601D58C782343B3
:1017A0000C884FF00F0C14F0FF0F4FF0010E19D002
:1017B00005680E880EFA02F42640A6420ED1960065
:1017C0000CFA06F7BD4303FA06F63543CE78282E09
:1017D00000D14461CE78482E00D10461521C082A01
:1017E000E7D305600A88FF2A1DD94568002202F167
:1017F00008060EFA06F40E882640A6420FD196007F
:101800000CFA06F725EA070703FA06F5CE783D43FA
:10181000282E00D14461CE78482E00D10461521C9C
:10182000082AE4D34560F0BD4FF6FF710180022124
:1018300081700421C17070470246002092680A42FC
:1018400000D001207047806880B2704702460020B7
:10185000D2680A4200D001207047C06880B2704749
:1018600001617047416170470AB101617047416190
:101870007047C160704741F480328261816182614A
:10188000816980697047224B10B51A684FF68074E1
:10189000224042EA00100843186010BD1D49C8618B
:1018A0007047F0B51A4D6B68420D120184B2C0F357
:1018B00001579440C0F30346032F05D0C0020AD558
:1018C0000320B040834307E0686823F0706220F093
:1018D0007060686002E0A34343F0706201B122438C
:1018E0006A60F0BD10B58A0721F003040849120FA1
:1018F00021440F238C6893409C438C608B689040FC
:1019000003438B6010BD00000014014000F8FEBFCF
:101910000000014000002042374900200860091DF6
:101920000860091D0860091D0860334933481431F7
:101930000860704730B583792F4A016853B3136844
:101940008B431360111D0B680468A3430B6001797E
:1019500011440B68046823430B60274C083421684A
:10196000036899432160231D19680568A94319601C
:101970004179102905D011440A68006802430A60C1
:1019800030BD216802681143216019680068014375
:10199000196030BD0079104402688A43026030BD8E
:1019A0000021016001710C2242718171704712495E
:1019B00010310A6802430A60704701460E4A00204F
:1019C000143212680A4200D0012070470A491431CB
:1019D00008607047084A014600201268064B0A401A
:1019E00014331B680B4202D0002A00D0012070473C
:1019F000014914310860704700040140FFFF0700EF
:101A0000EFF3108072B6704780F310887047244857
:101A10004FF0FF010170002080F309881D4801216B
:101A2000017020484FF08051016062B6FEE71D480A
:101A30004FF08051016070471A484FF080510160AB
:101A40007047EFF3098028B1203880E8F00F124981
:101A50000968086000B50A4880475DF804EB0B4848
:101A60000B490A7802700C480C490A680260106839
:101A700090E8F00F203080F309884EF0040E704794
:101A8000231B0008CB400008120000201400002097
:101A90001500002017000020300000203800002032
:101AA00022ED00E004ED00E02549002008807047A9
:101AB000704770477047704770474FF080731360EE
:101AC000131FA2F1240218606FF00100D0614FF0E3
:101AD000123090614FF0033050614FF002301061CE
:101AE0004FF00130C2E902104FF0113050604FF05A
:101AF000103042F804094FF009301060A2F11000D4
:101B00004FF00831C1604FF0073181604FF006316E
:101B100041604FF0053140F804194FF00431016085
:101B200070477047704706490888401C80B208809B
:101B3000642803D30020088000F01CBA704700001E
:101B40000C0000202DE9F05F0746DDE90BA5884673
:101B500091469B462DB1012A0BD0022A04D0842045
:101B600042E00020BDE8F09FB8F1000F02D18320D1
:101B70003AE027B1F648007818B18B2034E0822093
:101B800032E000F092FAF348002604683CB3E168C2
:101B90000160F149E66026610888401C0880EF4931
:101BA0000888401E0880E4B1012084F83100C4E9AF
:101BB000067884F83090C4F804B00A98A0605FEA10
:101BC0000A0008D002F04AF910280FD2514604F159
:101BD000200002F005F900F064FA2E700FE03446A0
:101BE000E1E700F05EFA86202870BAE7232084F847
:101BF000200084F821608C20287000F052FA2046E2
:101C0000B0E7002180F8311080F83010C1614161E7
:101C100041603F22816080F8202080F8211001611E
:101C2000CC490A68C2600860CB480188491E01801F
:101C3000CA480188491C0180704710B54169C84AEB
:101C400001F0070102EBC10100240B68C268834266
:101C500003D10A602AB1146103E00369DA6002B1BA
:101C60001361012280F83120C46004618888401E1D
:101C7000888010BD70B505460C002CD02DB1287899
:101C8000642804D08920087025E08A20FBE7B0484A
:101C9000007808B18B20F6E700F007FA95F83110CC
:101CA000A9B1002601290AD0022908D0032903D0AE
:101CB00000F0F7F98D200DE02846FFF7BEFF28461B
:101CC000FFF79FFF00F0EDF92670012070BD00F0D6
:101CD000E8F987202070002070BD70B505460E46DB
:101CE00014002FD02EB135B12878642806D0892071
:101CF00002E0882000E08A20107023E094480078F9
:101D000008B11120F8E700F0D0F995F83100A8B13A
:101D1000012807D0022805D0032803D000F0C1F91C
:101D20008D200EE005F12001304602F059F80546FD
:101D300000F0B7F900212170284670BD00F0B1F91C
:101D400087202070002070BD2DE9F04105460C0071
:101D50003BD02DB12878642804D08920087034E065
:101D60008A20FBE77A48007808B18B20F6E700F07C
:101D70009CF995F8310020B30026012811D00228E3
:101D80001BD0032803D000F08CF98D201CE075498E
:101D900068690968451A00F084F926702846BDE88C
:101DA000F08195F83000AF69022801D107B9EF69D9
:101DB00000F077F926703846F1E700F072F92670E6
:101DC00003E000F06EF9872020700020E7E770B58F
:101DD00005460C0005D035B12878642805D0892047
:101DE00007E0002070BD8A2003E05948007810B158
:101DF0008B200870F5E700F058F995F831503DB1A7
:101E0000012D05D0022D03D0032D01D08D2000E03F
:101E10000020207000F045F9284670BD032280F8AC
:101E20003120504A0129126813D0816989B11144C7
:101E300041614B4A01F0070102EBC10100230A682E
:101E4000086042B1C26010618A88521C8A800361B6
:101E50007047C169EBE70122C360F7E770B505463B
:101E60000C002DD02DB12878642804D0892008706A
:101E700026E08A20FBE73648007808B18B20F6E799
:101E800000F013F995F83110B1B1002601290AD0FC
:101E9000022908D0032903D000F003F98D200EE0B9
:101EA0002846FFF7CAFE00212846FFF7B7FF00F0DB
:101EB000F8F82670012070BD00F0F3F8872020703C
:101EC000002070BD2DE9F04105460E4617461C0066
:101ED0004ED02DB12878642804D08920187047E0AE
:101EE0008A20FBE71A48007808B18B20F6E700F05B
:101EF000DCF895F8310050B3012823D0022821D016
:101F0000032803D000F0CDF88D2030E02846FFF7FD
:101F100094FE002020708EB18F20032E03D0042E5B
:101F200005D0842009E06A683AB1A96802E06A68CD
:101F30001AB139462846904700E0207000F0B1F809
:101F400001202CE700F0ADF88E202070F8E70BE0C0
:101F500012000020680000205A00002058000020D5
:101F6000581F00205C00002000F09BF887202070A4
:101F7000002014E75148006800F035BE08B5DFF8CE
:101F80003C81DFF83C914F4E6A460021D8F80000B2
:101F900000F09AFD00F089F83068401C306000F0D5
:101FA0000700022759F8304013E060693168E5689E
:101FB00088420DD1626812B12046A1689047204640
:101FC000FFF73BFE94F83000022807D084F8317008
:101FD0002C46002CE9D100F064F8D5E70121204619
:101FE000FFF71CFFF4E770B588B04FF45071364826
:101FF00001F0C5FF4021324801F0C1FF3248002105
:10200000642300F134020C463F25037080F8314010
:10201000C26080F8205080F82140491C34303432AE
:1020200089B20F29F1D3037080F83140C46080F881
:10203000205080F82140234825490460234804802B
:1020400010200880234920480860012000F0B4FCDB
:10205000214D2860002000F0AFFC184E05AA1FA1FA
:102060003060286801F004FF05AA1FA1306801F064
:10207000FFFE802102910320CDE903401D4A4FF667
:10208000FD70CDE900023D2302F5FE7200211A48E1
:1020900000F0E1F906AA19A13D2000F033FB08B0D9
:1020A00070BD0D48006800F09EBD08B50A486A463C
:1020B0000021006800F008FD08BD00006400002059
:1020C000581F00205C000020181A00205A00002031
:1020D0005800002068000020600000204F532D545D
:1020E0006D724C6F636B00004F532D546D725369CA
:1020F00067000000581D00207D1F000875432F4F0A
:10210000532D494920546D720000000070B50446FB
:102110005D48007800281DD1002C1BD0FFF770FC13
:1021200003465A485A4D016891F8302091F83160C1
:10213000A85CB043A85405D1564891F832500278B3
:10214000AA4302704C851846FFF75EFCBDE870405C
:1021500001F0F7BF70BD70B54B4C24780CB1552021
:1021600070BD00B919B13B2902D9512070BD1AB117
:102170003B2A02D9522070BD2BB14FF47A74A3428E
:1021800003D3532070BD542070BD4FF47A756B4358
:10219000B3FBF4F34FF461646043C1EB011100EB56
:1021A0008100104400EB4001C1EBC01003EBC00004
:1021B000040C80B2FFF7AAFF4FF4004507E0284661
:1021C000FFF7A4FF2846FFF7A1FF641EA4B2002C6E
:1021D000F5D1002070BD10B504463F2801D32A2058
:1021E00010BDFFF70DFC2C4951F8241091B10129C5
:1021F00010D04A8D92B100234B8591F82C2012F01B
:10220000370F0FD022F0370281F82C20012281F8FD
:102210002D2009E0FFF7F8FB432010BDFFF7F4FB8A
:10222000502010BD81F82D3091F82C20120713D4C6
:10223000184A01F130018B78147843EA04031370D3
:102240000A78134B49789C5C44EA01049C54FFF7DC
:10225000DBFB01F076FF01E0FFF7D6FB002010BDAD
:1022600010B5FFF7CDFB0D490C68FFF7CDFB2046FD
:1022700010BD10B50446FFF7C3FB08490C60BDE86C
:102280001040FFF7C1BB000012000020300000200A
:1022900044000020160000204811002040000020CB
:1022A0002DE9F04705460C463F2801D3FF2D01D10B
:1022B0003F2C02D32A20BDE8F087FFF7A1FBDFF80F
:1022C00010C403465CF8240020B11846FFF79CFBBD
:1022D0002820F0E7FF2D03D1FE48006890F82E502B
:1022E0005CF8252012B3012A25D0E108012004F072
:1022F000070A00FA01F600FA0AF000F0FF090020D0
:102300004CF825004CF8242092F83050DFF8C883B0
:1023100092F83100F6B218F80570074222D08743D0
:10232000DFF8B8C308F805700AD010E01846FFF7C8
:102330006BFB2920BFE71846FFF766FB4320BAE78F
:1023400092F832709CF80000B8438CF800009CF8BA
:10235000000030438CF8000018F8010040EA090042
:1023600008F80100D069B0B100EB050C92F83170AB
:102370009CF80B50BD438CF80B5004D1857A92F831
:102380003270BD438572857A354385720844C57ABB
:1023900045EA0905C57202F82E4F1846917082F879
:1023A00001A0167182F80390FFF72EFBCC4800784D
:1023B000012801D101F0C5FE00207CE72DE9FE4394
:1023C00006460F4690461C463F2B02D92A20BDE800
:1023D000FE83FFF715FBC349097819B1FFF714FB1A
:1023E0003C20F4E7BA4D55F8241019B1FFF70CFB67
:1023F0002820ECE7012145F82410FFF705FB002316
:10240000424639463046FFF758FB00260146009603
:102410000196334632462046029601F0F3FF07004C
:1024200007D0FFF7EDFA45F82460FFF7EDFA3846DC
:10243000CDE7AB4800780128F9D101F082FEF6E73C
:10244000D30707D0920705D50022002902D004C087
:10245000491EFAE770472DE9FF4F83B08246DDE958
:102460001386DDE911978B461C463F2B03D92A20A2
:1024700007B0BDE8F08FFFF7C3FA9A49097819B1A0
:10248000FFF7C2FA3C20F3E7914D55F8241019B13B
:10249000FFF7BAFA2820EBE7012145F82410FFF7EF
:1024A000B3FA324639464846FFF7CAFF3346594623
:1024B0005046059AFFF701FB0097CDE901860146DA
:1024C0004A462046109B01F09DFF060008D0FFF70A
:1024D00097FA002145F82410FFF796FA3046C7E72F
:1024E0007F4800780128F9D101F02BFEF6E72DE9AD
:1024F000F04705467B48007808B14020DBE63F2DD9
:1025000004D005D3FF2D03D02A20D4E63E20D2E606
:10251000FFF776FA0646FF2D03D16E48006890F863
:102520002E50DFF8AC9159F825405CB1012C0ED04B
:1025300094F83010684A94F83130505C9843505405
:102540000AD00FE03046FFF75FFA4320B3E630468B
:10255000FFF75AFA3D20AEE6604894F83230027830
:102560009A430270E06958B1421894F83130D17A38
:102570009943D17204D1817A94F8322091438172C7
:10258000606A08B101F09BF94FF00008A4F82A80B6
:10259000554F84F82C8084F82D803878FF2801D29C
:1025A000401C38703046FFF72FFA01F0A4FEFFF709
:1025B00027FA0646387808B1401E38702046FFF7E3
:1025C00079FA4A490878401E087049F82580A069C0
:1025D0004146A0B162694261D4E905028261444882
:1025E0000268626104603F2004F8480F3046617061
:1025F000FFF70AFA3A480078012806D007E0606938
:102600003C4A816160691060E9E701F09AFD0020B1
:1026100051E610B504463F2804D00FD3FF2803D05D
:102620002A2010BD3E2010BDFFF7EAF929490968AC
:1026300091F83340FFF7E8F9204610BDFFF7E0F9C5
:10264000234951F8241041B101290AD03F2281F8D1
:102650003320FFF7D9F9002010BDFFF7D5F943204B
:1026600010BDFFF7D1F93D2010BD2DE9F041054621
:102670000F46140044D03F2D03D9FF2D01D02A204E
:1026800006E027B11748007820B1112000E00C20A7
:10269000107035E0FFF7B4F90646FF2D03D10D4861
:1026A000006890F82E500A4850F82510432571B163
:1026B000012921D04831384601F092FB05463046C9
:1026C000FFF7A2F9002020702846BDE8F08113E052
:1026D0004811002030000020440000201600002097
:1026E0001700002012000020130000201800002016
:1026F000340000203C0000203046FFF785F92570AB
:102700000020E2E72DE9F041054688461400DCD0C0
:102710003F2D03D9FF2D01D02A2006E0B8F1000F8C
:1027200005D09648007820B112201070CDE70C201B
:10273000FBE7FFF765F90646FF2D03D190480068D7
:1027400090F82E508F48432750F825505DB1012D49
:1027500009D0404601F082FB0F2809D93046FFF727
:1027600053F941200DE03046FFF74EF92770ACE7F2
:10277000414605F1480001F033FB3046FFF744F9CC
:1027800000202070A1E710B504463F2801D32A207D
:1027900010BDFFF735F97B4951F8241059B10129D3
:1027A0000DD091F82C2013072BD532F0080281F8B8
:1027B0002C2008D009E0FFF727F9462010BDFFF7CD
:1027C00023F9432010BD4A8D1AB1FFF71DF90020EF
:1027D00010BD6D4A01F130018B78147843EA04038F
:1027E00013700A78694C4978A35C43EA0103A35447
:1027F000FFF70AF9664800780128E8D101F0A1FC4A
:10280000E5E7FFF701F9442010BD2DE9F04104464A
:102810000E463F2803D9FF2C01D02A2055E746B1A8
:10282000002030607060FFF7EBF80146FF2C02D00B
:1028300005E0092049E75248006890F82E405148C9
:1028400050F8240058B1012809D0028AD2070BD0D1
:10285000D0E9025700240846FFF7D6F80AE00846F8
:10286000FFF7D2F8432030E70846FFF7CDF84520C0
:102870002BE7641C01CD0028FBD0A0003060381B82
:1028800080007060002020E770B504463F2804D027
:1028900005D3FF2C03D02A2070BD472070BDFFF761
:1028A000AFF801463648FF2C006805D090F82E009E
:1028B000A04204D1012503E090F82E40FAE700255C
:1028C000304850F8240058B101280ED090F830203C
:1028D0002E4C90F83160A35CB343A3540AD00FE0B0
:1028E0000846FFF791F8482070BD0846FFF78CF8BE
:1028F000432070BD244A90F832401378A3431370EC
:1029000010F82C2F42F0080202700846FFF77CF8FE
:10291000012D01D101F015FC002070BD70B50446F9
:102920000E463F2803D9FF2C01D02A2070BD2EB1BE
:10293000FFF766F80546FF2C02D005E0092070BDC0
:102940000F48006890F82E400E4850F8241051B1FE
:1029500001290DD05822304601F04AFD2846FFF7E4
:1029600053F8002070BD2846FFF74EF8292070BDAF
:102970002846FFF749F8432070BD000012000020F0
:1029800030000020481100201600002044000020E4
:102990001700002070B5040002D02078032801D071
:1029A000002070BDFFF72CF825890DB1691E21812B
:1029B000FFF72AF8284670BD70B50546C248007872
:1029C00008B1002070BDFFF71BF8C0490C680CB1BE
:1029D00062680A60FFF718F854B10320207025815F
:1029E00000203F216060E1742075204601F0F5FC75
:1029F000204670BD2DE9F0478846044615002CD0CE
:102A00002CB12078032804D00120107024E0042089
:102A1000FBE7AD48007808B10F20F6E7FEF7F0FFBE
:102A20000746A07A08B1012600E000265FEA080008
:102A3000DFF898924FF03F084FF0000A06D00128C7
:102A400026D03846FEF7E0FF072004E03EB13846C6
:102A5000FEF7DAFF492028702046BDE8F08784F8A9
:102A6000138084F814A084F800A0D9F800106160E5
:102A7000A4F808A056463846C9F80040FEF7C4FF3F
:102A80002E701FE0002301221946204601F034FC7D
:102A9000A07A0028F6D184F8138084F814A084F872
:102AA00000A0D9F800206260A4F808A0D0463846FB
:102AB000C9F80040FEF7A8FF012E01D101F041FB4B
:102AC00085F800800020C8E72DE9F04705468946D3
:102AD0001400C2D025B12878032803D001200AE0D1
:102AE000042008E07848007808B1022003E0784824
:102AF000007810B10D201070AFE7FEF781FF064699
:102B00002889002710B1401E28812CE0DFF8C481FD
:102B1000D8F8000010F82C1F41F001010170477037
:102B200020F8029C284601F01DFC3046FEF76CFFA1
:102B300001F007FBFEF764FF0646D8F8000090F8A6
:102B40002D80B8F1000F0DD0284601F02DFC304645
:102B5000FEF75AFFB8F1020F01D00A2000E00E2064
:102B600020707AE7C7613046FEF74EFF277074E7A2
:102B70002DE9F04106460F46150032D02EB13178CE
:102B80000120032903D010702BE00420FBE7FEF79F
:102B900037FF8046B07AF8B10024012F10D002230D
:102BA00001220021304601F0A7FB01244046FEF738
:102BB0002BFF01F0C6FA0E2028702046BDE8F081F8
:102BC000022301220021304601F096FB641CB07AFA
:102BD000E4B20028F4D1E9E74046FEF715FF0020F3
:102BE00028700020EAE770B5040004D0207803289C
:102BF00003D0012070BD042070BDFEF701FF054623
:102C0000A07A58B1002301221946204601F074FB36
:102C10002846FEF7F9FE01F094FA09E020894FF604
:102C2000FF71884206D2401C20812846FEF7ECFE48
:102C3000002070BD2846FEF7E7FE322070BD2DE96A
:102C4000F04106000F4605D037B13078032805D093
:102C50000120B3E70420B1E70920AFE7FEF7D0FE7B
:102C60000146B07AB872BC1C06F10B050020401C6E
:102C700015F8012BC0B204F8012B0828F7D33089CE
:102C800038800846FEF7C0FE002097E770B504467E
:102C90000E46150005D02CB12078032804D0012061
:102CA000107070BD0420FBE7FEF7AAFE002129701A
:102CB000218939B9A17A29B149212970BDE870402B
:102CC000FEF7A2BE2681F9E71200002020000020B6
:102CD000130000203000002070B505460C0005D020
:102CE00035B12878022805D001200870002070BD79
:102CF0000420FAE7FEF784FE6A680346D08A70B1C2
:102D00001169081D10610D68D18A491ED182916830
:102D1000884201D1506810610020207002E01F201D
:102D2000207000251846FEF76FFE284670BD2DE97D
:102D3000F0410646F9488846007810B10020BDE809
:102D4000F081FEF75DFEF64F3C680CB161683960BA
:102D5000FEF75AFE1CB3FEF753FEF2490D68C5B1EB
:102D60002A680A60FEF750FE06EB8800C5E901609C
:102D7000EE602E61A5F814800020E8820221217007
:102D800020813F216560E1742075204601F025FB1C
:102D900005E0396861603C60FEF736FE002420469D
:102DA000CDE72DE9F05F8846044615002ED02CB102
:102DB0002078022804D00120107026E00420FBE7D0
:102DC000D648007808B10F20F6E7FEF719FE07464F
:102DD000A07A08B1012600E000265FEA0800DFF8CB
:102DE00044B3DFF83C934FF03F0A4FF0000806D0A1
:102DF00001282CD03846FEF707FE072004E03EB13C
:102E00003846FEF701FE492028702046BDE8F09FB5
:102E100084F813A084F814806068DBF8002046462C
:102E20000260CBF8000084F80080D9F800106160DF
:102E3000A4F808803846C9F80040FEF7E5FD2E707A
:102E400024E0002304221946204601F055FAA07A16
:102E50000028F6D184F813A084F814806068DBF8A9
:102E600000200260CBF8000084F80080D9F8002030
:102E70006260A4F808803846C9F80040FEF7C4FD37
:102E8000012E01D101F05DF985F800800020BDE739
:102E900010B5040004D02078022803D0012010BD12
:102EA000042010BDFEF7ACFD014660684268C260B8
:102EB00002610022C2820846FEF7A6FD002010BD76
:102EC0002DE9F04705468946140057D02DB12878E2
:102ED000022804D00120107050E00420FBE78F4846
:102EE000007808B10220F6E78F48007808B10D207D
:102EF000F1E7FEF785FD064668680027C18A91B1B3
:102F00000269111D01611568C28A521EC28282685F
:102F1000914201D1416801613046FEF775FD27708D
:102F20002846BDE8F087DFF80482D8F8000010F8E2
:102F30002C1F41F004010170477020F8029C2846C4
:102F400001F010FA3046FEF75FFD01F0FAF8FEF7E7
:102F500057FD0646D8F8000090F82D80B8F1000F14
:102F60000ED0284601F020FA3046FEF74DFDB8F1AC
:102F7000020F01D00A2000E00E2020700020D0E7D0
:102F8000056A076280F82C70C761C5E72DE9F0413A
:102F900006460F46150031D02EB1317801200229A6
:102FA00003D010702AE00420FBE7FEF729FD8046DD
:102FB000B07AF0B10024012F0FD0022304220021A7
:102FC000304601F099F901244046FEF71DFD01F05D
:102FD000B8F80E2028702046B1E602230422002112
:102FE000304601F089F9641CB07AE4B20028F4D1CB
:102FF000EAE74046FEF708FD0020287000209EE624
:1030000070B504000E4604D02078022803D00120B9
:1030100070BD042070BDFEF7F3FC0546A07A58B1E0
:10302000002304223146204601F066F92846FEF7C7
:10303000EBFC01F086F819E06068C18A828A91424F
:1030400004D32846FEF7E0FC1E2070BDC1680A1DAF
:10305000C2600E60C18A491CC182D0E902128A4254
:1030600001D14168C1602846FEF7CEFC002070BD4A
:1030700070B504000E4604D02078022803D0012049
:1030800070BD042070BDFEF7BBFC0546A07A58B1A8
:10309000002304223146204601F02EF92846FEF78F
:1030A000B3FC01F04EF818E06068C18A828A914250
:1030B00004D32846FEF7A8FC1E2070BD42680169B3
:1030C000914201D181680161091F01610E60C18ACD
:1030D000491CC1822846FEF797FC002070BD2DE9EF
:1030E000F04107000D46144604D03878022803D07A
:1030F000012024E6042022E6FEF782FC0646B87A88
:1031000028B3E00714D0002304222946384601F0F2
:10311000F3F8B87A0028F6D110E000001200002081
:103120002000002054000020130000203000002068
:10313000002304222946384601F0DEF83046FEF727
:1031400063FC600701D400F0FCFF0020F7E57B681A
:10315000D88A998A884204D33046FEF755FC1E204F
:10316000EDE5A00709D559681869884201D198682A
:103170001861001F1861056009E0D868011DD96059
:103180000560D3E90201814201D15868D860D88A2C
:10319000401CD8823046FEF737FCD6E770B50600F3
:1031A0000D4605D035B13078022805D0012070BD1C
:1031B000042070BD092070BDFEF722FC0246B07AE3
:1031C000287406F10B0405F108010020401C14F8D6
:1031D000013BC0B201F8013B0828F7D37068C18AEF
:1031E00009B1016909682960C18AA980808AE880DB
:1031F0001046FEF709FC002070BD10B560210A489A
:1032000000F0BDFE0848002100F1180240F8182B1C
:10321000491C183289B20329F8D3002101600349FF
:103220000148086010BD0000B819002054000020BB
:103230002DE9F0410646884617461D0020D0622041
:103240000EB1B10701D018701AE0B8F1020F01D227
:103250005B20F8E7042F01D25C20F4E7FEF7D0FBF7
:1032600072490C680CB162680A60FEF7CDFB2CB1A4
:10327000F01932460021A8F1010308E05A20287015
:103280000020BDE8F081106002463844491C994294
:10329000F9D3002010602660C4F810806660C4E98D
:1032A000027828702046ECE770B504460D0016D071
:1032B00074B1FEF7A5FB216969B16668491E3268E1
:1032C00062602161FEF7A0FB00202870304670BDCF
:1032D0006020087003E0FEF797FB5D202870002057
:1032E00070BD2DE9F04105460E46140006D03DB1F3
:1032F00046B14F48007838B1112010700020C0E767
:103300006020FAE70C20F8E7FEF77AFB074605F1A4
:103310001401304600F064FD05463846FEF774FBA4
:10332000002020702846ACE72DE9F04105460E4606
:103330001400A6D035B13EB13D48007830B112201E
:1033400010709EE76020FBE70C20F9E7FEF758FBC2
:103350000746304600F082FD0F2804D93846FEF7B4
:1033600053FB632008E0314605F1140000F038FDFE
:103370003846FEF749FB0020207082E770B5040054
:103380000D460AD05DB1FEF73BFBD4E903128A4239
:1033900007D3FEF739FB5E2070BD602070BD5F2053
:1033A00070BD6168296065602169491C2161FEF773
:1033B0002BFB002070BD70B505000C4614D0ACB1DD
:1033C000FEF71EFB2968216069686160A968A16039
:1033D000E968E16029692161FEF716FBD4E9030180
:1033E000401A6061002070BD602070BD612070BD1A
:1033F00070B5B4210F4800F0C2FD0E48002103460D
:103400000A463F2401EBC10503EB850524354560E1
:1034100004754275491C243089B20429F2D34260F4
:10342000047542750148036070BD00005000002023
:10343000120000200419002070B5040002D020788A
:10344000012801D0002070BDFEF7DAFA002165687E
:103450006160FEF7D9FA284670BD70B50546D948B7
:10346000007808B1002070BDFEF7CAFAD6490C6892
:103470000CB162680A60FEF7C7FA54B101202070EF
:10348000002020813F216560E1742075204600F016
:10349000A4FF204670BD2DE9F0478846044615007C
:1034A0002CD02CB12078012804D00120107024E009
:1034B0000420FBE7C348007808B10F20F6E7FEF7C9
:1034C0009FFA0746A07A08B1012600E000265FEACD
:1034D0000800DFF8F4924FF03F084FF0000A06D0E2
:1034E000012826D03846FEF78FFA072004E03EB1C7
:1034F0003846FEF789FA492028702046BDE8F08753
:1035000084F8138084F814A084F800A0D9F800107F
:103510006160A4F808A056463846C9F80040FEF796
:1035200073FA2E701FE0002302221946204600F095
:10353000E3FEA07A0028F6D184F8138084F814A062
:1035400084F800A0D9F800206260A4F808A0D04652
:103550003846C9F80040FEF757FA012E01D100F0B5
:10356000F0FD85F800800020C8E72DE9F04705460A
:103570008A4614004BD02DB12878012804D00120B0
:10358000107044E00420FBE78E48007808B1022068
:10359000F6E78E48007808B10D20F1E7FEF730FA23
:1035A0006E6807464FF0000846B13846C5F80480FB
:1035B000FEF72AFA84F8008030469FE7DFF8109281
:1035C000D9F8000010F82C1F41F00201017080F8BA
:1035D000018020F802AC284600F0C4FE3846FEF711
:1035E00013FA00F0AEFDFEF70BFA0646D9F800001C
:1035F00090F82D706FB1284600F0D6FE3046FEF7E9
:1036000003FA022F01D00A2000E00E2020700020D3
:1036100074E7056AC0F8208080F82C80C0F81C8010
:103620003046FEF7F1F984F80080284666E72DE978
:10363000F04106460F46150032D02EB131780120F8
:10364000012903D010702BE00420FBE7FEF7D8F926
:103650008046B07AF8B10024012F10D002231A4618
:103660000021304600F048FE01244046FEF7CCF928
:1036700000F067FD0E2028702046BDE8F08102238F
:103680001A460021304600F037FE641CB07AE4B2DE
:103690000028F4D1E9E74046FEF7B6F9002028708B
:1036A0000020EAE770B504000D4605D035B120785A
:1036B000012805D0012070BD042070BD032070BD1D
:1036C000FEF79EF90646A07A58B100230222294649
:1036D000204600F011FE3046FEF796F900F031FD6D
:1036E0000AE0606820B13046FEF78EF9142070BD04
:1036F00030466560FEF788F9002070BD2DE9F04185
:1037000004000D46164605D035B12078012805D0B5
:103710000120B2E70420B0E70320AEE7FEF770F91E
:103720000746A07AD0B1F00709D00023022229462B
:10373000204600F0E1FDA07A0028F6D105E0002344
:1037400002222946204600F0D7FD3846FEF75CF9F4
:10375000700701D400F0F5FC00208EE7606820B10E
:103760003846FEF751F9142087E738466560FEF7C2
:103770004BF9F1E72DE9F04106000F4605D037B1CE
:103780003078012805D0012077E7042075E709206B
:1037900073E7FEF735F90146B07A38733C1D06F140
:1037A0000B050020401C15F8012BC0B204F8012BBA
:1037B0000828F7D3706838600846FEF725F900201E
:1037C0005BE7000012000020200000201300002012
:1037D000300000202DE9F04105460F4614461E003A
:1037E00005D03DB12878052806D0012018700020AA
:1037F000BDE8F0816E20F9E714F0800002D022F0DD
:1038000080040120804600203070FEF7F9F8702116
:10381000FCB1012C23D0022C08D0032C11D0FEF7D0
:10382000F3F800246F2030702046E1E72C8922460F
:103830003C40BC4209D01CE0A24318E0FEF7E4F88B
:10384000F2E72C8922463C4013D0B8F1010FF5D1A4
:10385000F2E72A8927EA0204BC4204D009E02A8957
:1038600037EA020405D0B8F1010FE7D122432A81DB
:10387000E4E73170E2E770B506460D0004D0FA487F
:10388000007818B110200870002070BDFEF7B8F85D
:10389000F6490C686CB162680A60052121702681C6
:1038A00000263F216660A172E672FEF7ADF82E7029
:1038B00003E0FEF7A9F872202870204670BDD0E919
:1038C000001200232AB1116001B14A60806843628E
:1038D0007047C26800295160F8D04B60F6E710B518
:1038E00002468068002300F12800438001800179AE
:1038F00031F0200101714371A0F1280005D00024AE
:103900001046FFF7DCFF204610BDD94900F130001A
:1039100083780C7843EA04030B700178D54B407828
:103920005C5C44EA00045C544FF00104E8E72DE9D4
:10393000F05F8946044615002CD02CB1CA480078A7
:1039400020B10F20107024E06E20FBE720780528BE
:1039500001D00120F6E7FEF753F8666880460EB105
:10396000012700E000275FEA0900DFF800B34FF00D
:103970003F094FF0000A06D0012824D04046FEF748
:1039800043F8072004E03FB14046FEF73DF84920E8
:1039900028702046BDE8F09F84F80A9084F80BA0B8
:1039A00084F800A0DBF800106160A4F808A0564677
:1039B0004046CBF80040FEF727F81BE000213046D8
:1039C000FFF78DFF3668002EF8D184F80A9084F84E
:1039D0000BA084F800A0DBF800106160A4F808A038
:1039E00056464046CBF80040FEF70EF8012F01D1B5
:1039F00000F0A7FB2E700020CCE72DE9F041054632
:103A00000F46140016D02DB137B19748007830B169
:103A1000112002E06E2000E00C2010700AE0FDF79B
:103A2000EFFF06462878052806D03046FDF7ECFF64
:103A3000012020700020DBE605F10A01384600F085
:103A4000CFF905463046FDF7DFFF002020702846FD
:103A5000CEE62DE9F04105460F46140006D035B1FB
:103A60003FB18148007830B112201070C0E66E205E
:103A7000FBE70C20F9E7FDF7C3FF06462878052889
:103A800004D03046FDF7C0FF012012E0384600F0B8
:103A9000E5F90F2804D93046FDF7B6FF732008E09A
:103AA000394605F10A0000F09BF93046FDF7ACFFFE
:103AB000002020709CE6F0B56F4E059F346804F13D
:103AC0002404257A45F0200525724FF00005657223
:103AD000E78044F824190A828B748C604268C860BD
:103AE000C1E90025426802B1516041603068614B14
:103AF00090F8301090F831405A5CA2435A5405D1E6
:103B000090F832205A48017891430170F0BD2DE9B8
:103B1000F04F87B00446109D0F4691469A462DB14E
:103B200044B15148007838B102209BE0002007B032
:103B3000BDE8F08F6E2095E05048007808B10D2068
:103B400090E02078052801D001208BE019F0800F4B
:103B500003D029F08009012600E00026FDF750FF80
:103B600006905FEA09004FF0000B2FD0012838D0F3
:103B7000022808D0B9F1030F14D00698FDF744FFCE
:103B800000206F215BE0208900EA0708B8452CD1AE
:103B9000012E02D120EA080021E037490968A1F886
:103BA00028800CE0208910EA07081ED0012E02D1DF
:103BB00020EA0800208130480068A0F82880069894
:103BC000FDF722FF85F800B04046B0E7208927EADC
:103BD0000008B84509D1012EDFD140EA0800208154
:103BE000DBE7208937EA0008F5D14B463A4601A9C0
:103BF0002046CDF800A0FFF75EFF0698FDF704FF12
:103C000000F09FFAFDF7FCFEDFF86C808446D8F8E0
:103C1000000090F82D70A7B180F82DB05C4601A887
:103C2000FFF74DFED8F8000080F82C406046FDF705
:103C3000EBFE0020022F01D00A2100E00E212970A6
:103C400075E7078D012E21D15FEA09001BD00128FD
:103C500019D0022814D0B9F1030F11D06046FDF736
:103C6000D3FE6F20287061E7120000204C00002076
:103C70001600002044000020300000201300002027
:103C80002089B84301E02089384320816046FDF750
:103C9000BBFE85F800B0384649E710B5FDF7B0FE29
:103CA0004C4909680C8DFDF7AFFE204610BD2DE98B
:103CB000F04105460E4614461F0028D02DB1287845
:103CC000052804D00120187021E06E20FBE7FDF7E5
:103CD00097FE80462CB1012C06D0FDF795FE712091
:103CE00014E02889B04301E0288930432881002668
:103CF0006C6828E0A07CA0B1012819D0022808D067
:103D000003280AD04046FDF77FFE6F203870002060
:103D10006EE52989208A014007E02989208A01402F
:103D200009E0218A2A8908469143884204D009E0A3
:103D3000218A2889814329B12046FFF7D0FD012837
:103D400000D101262468002CD4D14046FDF75CFE4A
:103D5000012E01D100F0F5F9FDF752FE2C89FDF797
:103D600053FE00203870204642E570B505460C0031
:103D700005D035B12878052805D00120087000202D
:103D800070BD6E20FAE7FDF73BFE2D89FDF73CFE86
:103D900000202070284670BD10B58C210E4800F020
:103DA000EEF80D48002100F11C020B463F24037081
:103DB00042608472C372491C1C301C3289B20429CF
:103DC000F5D30370436084720449C37202480860EB
:103DD00010BD000030000020781800204C000020AA
:103DE000002204E0491C521C00F8013BD2B20B78BF
:103DF000002BF7D100210170104670472DE9F041EA
:103E000005460E46140006D045B14EB1FE488078F6
:103E100040B1112010E00020BDE8F08104200BE04B
:103E20000C2009E02878012808D0022806D00328B1
:103E300004D0042802D001201070ECE7FDF7E0FD6B
:103E4000074605F113013046FFF7CAFF054638461D
:103E5000FDF7DAFD002020702846DDE7014600204E
:103E600002E0491C401CC0B20A78002AF9D1704710
:103E70002DE9F04105460E461400CDD02DB136B1E6
:103E8000E148807828B112200DE004200BE00C20DE
:103E900009E02878012808D0022806D0032804D099
:103EA000042802D001201070B6E7FDF7A9FD0746EF
:103EB0003046FFF7D3FF0F2804D93846FDF7A4FD9D
:103EC0000B2008E0314605F11300FFF789FF384663
:103ED000FDF79AFD002020709EE77CB5CB4D0024B5
:103EE00069462046FEF791FC58B955F8241041B1B7
:103EF000012906D0D1E9020200EB82000864019892
:103F00004864641CE4B23F2CEAD97CBDBE4D02E09B
:103F1000C820FEF7FBF868780028F9D064206969AA
:103F20000026B1FBF0F48046FDF76AFDE969A9615E
:103F3000EF69EE61FDF768FD54B1B7FBF4F0C0F135
:103F4000640040B2002801DB287005E02E7003E019
:103F50002E706969B1FBF8F4FDF7AEFDFFF7BDFF08
:103F60006420FEF7D3F8DFE7A74CFDF749FDE169D0
:103F7000491CE161FDF748FDFDF79DFDF5E70022D5
:103F800003E0491E00F8012B89B20029F9D17047DE
:103F900070B586B0FDF788FD9B4B00241C639C70B8
:103FA000DC701C72DC71DC60DC619C615C615C70EB
:103FB0009C7103F134012046401CC0B201F8014B52
:103FC0000828F9D31C715C719C624FF4C66190485B
:103FD0001C62FFF7D4FF4FF480718C48FFF7CFFFCE
:103FE0008B48002100F158023F25426180F848507B
:103FF00080F84940491C58305832C9B21129F4D3CD
:10400000446180F8485080F849408148DC62586239
:104010004FF4B471A0F5CD60FFF7B1FF7D480021EA
:1040200000F1240204704260C5740475491C2430F8
:10403000243289B20929F5D304704460C57404752B
:1040400074481861FFF7A8FEFFF7D2F9FFF7D5F81B
:1040500080267148CDE901066C4A03254FF6FF70B2
:104060003F23121F00210090AFF20310CDE903455A
:10407000FEF7F1F905AA69A13F20FEF743FB6B4863
:10408000CDE90106644A4FF6FE703E23121F00215F
:104090000090AFF28710CDE90345FEF7DCF905AAE1
:1040A00063A13E20FEF72EFBFDF79DFF06B0BDE8A5
:1040B0007040FDF7FDBC5449C879012804D18878C7
:1040C000FF2801D2401C8870704770B54E4CE079D3
:1040D000012822D1FDF794FC0546A07820B1401EAE
:1040E00010F0FF00A07013D1E07888B900F0F8F963
:1040F0006079217988420BD0444951F82010A1629F
:10410000486B401C4863E068401CE060FDF794FC8D
:104110002846BDE87040FDF777BC70BD10B53A4C3D
:10412000E07901280CD1FDF76BFCA17821B9E17889
:10413000FF2901D2491CE170BDE81040FDF764BCC5
:1041400010BD70B5FDF75CFC2F4C0546A07898B902
:10415000E07888B900F0C4F96079217988420BD001
:104160002A4951F82010A162486B401C4863E0685E
:10417000401CE060FDF75BFC2846BDE87040FDF7A1
:1041800043BC10B5204CE079012813D1FDF738FC71
:10419000E17831B1491E11F0FF01E17001D1A17840
:1041A00019B1BDE81040FDF72FBCFDF72DFCBDE8AF
:1041B0001040C6E710BD10B5134CE07900280CD1B3
:1041C00000F08EF960791149207151F82000A06249
:1041D0002062BDE81040FDF71ABC10BD10B50220EA
:1041E000FDF794FFFDF70CFC074C0021E161FDF7A2
:1041F0000BFC6420FDF78AFFFDF702FCE1696161B9
:10420000012161701CE00000100000204811002016
:1042100048120020E00B0020480F002075432F4F6C
:10422000532D49492049646C65000000480D002069
:1042300075432F4F532D494920537461740000007A
:10424000BDE81040FDF7E0BB2DE9F041FDF76BFC48
:10425000FDF7D6FBA84D296B491C2963FDF7D4FB5C
:10426000E879012843D1687A01264FF0000828B187
:1042700001283CD0022803D085F80980EC6A32E09E
:104280006E72FBE7FDF7BCFB618D49B3A1F1010143
:104290000904090C618523D194F82C1011F0370F13
:1042A00006D021F0370184F82C1084F82D6001E04D
:1042B00084F82D8094F82C10090711D404F13004EF
:1042C000AA79A17841EA0201A9718B4A217802F109
:1042D00034026778535CA4F1300443EA0703535473
:1042E0006469FDF791FB94F82E003F28CAD193E54D
:1042F00040F21D1070477047F0B5847A7F4D4FF043
:10430000010E2C5D00EB040C0EFA04F69CF80B7009
:10431000F6B2ED5D0EFA05FE0EF0FF0E05EBC405DC
:1043200037EA0E07EDB28CF80B7002D1877AB743EB
:1043300087727348002750F8250000F11C00C781E0
:10434000C0E900714374017C9143017408D16A484B
:104350008179314381713430015D41EA0E010155AB
:104360002846F0BD70B5644C04F13405216AC8617B
:1043700091F8302091F83160AB5CB343AB5404D179
:1043800091F83230A2799A43A27111F8303F00F1CE
:104390000B0249789D5C0D439D54226A817A92F804
:1043A00032201143817270BD10B5534C226A12F84D
:1043B000301F43185278D97A9143D97205D1226AB5
:1043C000817A92F8322091438172206A002100F1B3
:1043D0001C0041740174016010BD002282720B3018
:1043E0001146491CC9B200F8012B0829F9D37047BE
:1043F00005E011F8013B521E00F8013B92B2002A81
:10440000F7D170472DE9F05F0646DDE90ABA0D469F
:1044100090469946FDF7F4FA374F7C6A002C5BD042
:1044200054F8141F7962FDF7EFFA44F8145CA6768D
:10443000002525766576E58244F808BC44E904A8A1
:104440000C9824F8040C24F8029CE577F0082077F7
:10445000012101FA00F0A07706F00700E076814024
:104460006177A5602561E5602562A5626562E56208
:104470003F20256384F8340084F83550A4F11404F7
:104480002046FDF74FFB2046FDF713FBFDF7B8FA7A
:1044900001461B4840F82640F86AC4E9050500B10A
:1044A0008461FC6204F13004BA79A078124B40EACE
:1044B0000200B871207803F1340364781A5C42EA90
:1044C00004021A54387A00F1010038720846FDF7E8
:1044D0009BFA0020BDE8F09FFDF796FA4220F9E72D
:1044E000054A064902F134039079085C1B5CC95CFB
:1044F00001EBC00050717047100000208EE30008EF
:1045000048110020FDF7ACBE4FF47A71484390FB90
:10451000F1F080B2FDF7FABD3220FDF7F7BD10B51E
:104520000120FEF749FA2A4C60600020FEF795FF53
:10453000A06010BD08B526486A4600214068FEF715
:10454000C3FA08BD22484068FEF74DBB2148006809
:1045500090F82E00704708B51D486A460021806813
:10456000FFF703F808BD1A4801218068FFF79AB8E1
:1045700010B50020FEF720FA1549C86010BD70B5CF
:10458000134D2C6900F01BF800202861204670BDF7
:1045900038B500F014F80E4C206920B96A460021A5
:1045A000E068FEF791FA00212069216138BD0849D1
:1045B0000861C868FEF717BB70477047704704482A
:1045C0000178002902D101210170D1E77047000074
:1045D0006C000020300000207047704770B586B036
:1045E000002514223449684609F027F800266C4655
:1045F000FCF7C1F824F815006D1CEDB20A2DF7D3B5
:1046000020D16D1E002318460CE004EB400634F860
:10461000102071888A4203D9728024F81010012377
:10462000401CC0B2A842F0DB002BEBD1BDF8060065
:10463000BDF808100844BDF80A1008440321B0FB77
:10464000F1F086B2304606B070BD70B51A4986B03A
:10465000002514221431684608F0EFFF00266C464E
:10466000FCF7ACF824F815006D1CEDB20A2DF7D359
:1046700020D16D1E002318460CE004EB400634F8F0
:10468000102071888A4203D9728024F81010012307
:10469000401CC0B2A842F0DB002BEBD1BDF80600F5
:1046A000BDF808100844BDF80A1008440321B0FB07
:1046B000F1F086B23046C6E790E40008C0F3C402C9
:1046C000C0F38521C0F3C440C00200EB4110104488
:1046D00080B270472DE9F84F0646DDE90AA8894601
:1046E00015461F4600240CE0CDF8008006EBC40000
:1046F00015F8012B80B25346494601F091F8641C2D
:10470000E4B2BC42F0D3BDE8F88F2DE9F05F1E465D
:10471000DDF828B004468A461746B14211D1BC42A2
:1047200001D8254609E01546274606E05A46514677
:10473000284601F013F86D1CADB2BD42F6D9BDE8B4
:10474000F09F02D9AAEB060001E0A6EB0A001FFACF
:1047500080F9BC4211D15046B24501D8054609E066
:104760001D46064606E05A462946204600F0F6FF5A
:104770006D1CADB2B542F6D9E1E707D9E01B27467B
:104780001FFA80F815461C46564604E0381B25469D
:104790001FFA80F85446C8450DD00FE06D1CADB22D
:1047A000B44201D9641E00E0641CA4B25A462146FA
:1047B000284600F0D3FFBD42F0D9C0E75A46214653
:1047C000284600F0CBFFB44243D2C84520D9C8EBFD
:1047D000490006B24FEA49000FFA80FAA9EB080037
:1047E00040000FFA80F810E06D1CADB2002E02DA26
:1047F00006EB0A0003E0641CA4B206EB080006B254
:104800005A462146284600F0A9FFBD42ECD396E760
:10481000C9EB480007B24FEA48000FFA80FAA8EB4C
:10482000090040000FFA80F810E0641CA4B2002FC9
:1048300002DA07EB0A0003E06D1CADB207EB0800DB
:1048400007B25A462146284600F088FFB442ECD30E
:1048500075E7C84520D9C8EB490006B24FEA4900C0
:104860000FFA80FAA9EB080040000FFA80F810E078
:104870006D1CADB2002E02DA06EB0A0003E0641EE6
:10488000A4B206EB080006B25A462146284600F0BC
:1048900065FFBD42ECD352E7C9EB480007B24FEACF
:1048A00048000FFA80FAA8EB090040000FFA80F8E0
:1048B00010E0641EA4B2002F02DA07EB0A0003E046
:1048C0006D1CADB207EB080007B25A4621462846D8
:1048D00000F044FFA642ECD331E72DE9F84F06463D
:1048E0000024154603200F469946A0EB450089E0B9
:1048F0000A98A0B379198BB2A6EB040B06EB040A55
:104900001FFA8BF289B21FFA8AF0CDF80090FFF7F8
:10491000FCFE791B8BB21FFA8BF289B21FFA8AF068
:10492000CDF80090FFF7F1FE39198BB2A6EB050B1D
:1049300006EB050A1FFA8BF289B21FFA8AF0CDF84E
:104940000090FFF7E2FE391B8BB21FFA8BF289B29F
:104950001FFA8AF0CDF80090FFF7D7FE46E0FFE798
:10496000301907EB050A00901FFA8AF180B24A4617
:1049700000F0F4FEA6EB040B1FFA8AF11FFA8BF08D
:104980004A4600F0EBFE0098A7EB050A1FFA8AF1F1
:1049900080B24A4600F0E2FE1FFA8AF11FFA8BF05D
:1049A0004A4600F0DBFE701907EB040A00901FFA7C
:1049B0008AF180B24A4600F0D1FEA6EB050B1FFA41
:1049C0008AF11FFA8BF04A4600F0C8FE0098A7EB68
:1049D000040A1FFA8AF180B24A4600F0BFFE1FFAAD
:1049E0008AF11FFA8BF04A4600F0B8FE641CA4B2AC
:1049F000B8F1000F0CDB6D1EADB2A000A0EB85007E
:104A000040440A300FFA80F8A5423FF671AF7AE6CB
:104A100008EB8400801DF5E72DE9F8430746DDE942
:104A2000085089461646984698B1B74202D91446AE
:104A30003E460AE03C4608E02246434649461046C8
:104A40000095FFF762FE641CA4B2B442F4D9BDE83D
:104A5000F8833A4610460095FFF757FE4346324624
:104A6000194638460095FFF750FE32464B46414600
:104A700010460095FFF749FE4B463A461946304628
:104A80000095FFF742FEE2E71CB5049CCDE9003437
:104A90008B1802449BB292B2FFF7BEFF1CBD000010
:104AA00010B500F08AFC002010BD92B289B280B22D
:104AB00000F054BE89B280B200F03CBE704770B5C1
:104AC00089B280B20C46054600F034FE4FF6FF7105
:104AD0000A1A21462846BDE8704000F03FBE08B5DE
:104AE000F74B92B280B25B8800938BB21946FFF706
:104AF0000CFE08BD08B5F24B89B25B88009393B2F7
:104B000082B21046FFF701FE08BD2DE9F0410646CE
:104B10000C4617461D4605E03A4621463046FFF74B
:104B2000DEFF641CAC42F7DDBDE8F0812DE9F05FEB
:104B30000546DDE90A408B46B0F80090B0F80280E7
:104B4000DF4816789246007C1FFA8BF710F00301BD
:104B500003F0070004D0012912D0022918D107E080
:104B6000082815D2DFE800F068737F8B98A4B0BCEA
:104B700008280DD2DFE800F00C151F29333D4751FE
:104B8000082805D2DFE800F0BDC5CDD5DDE5EDF59F
:104B9000300604D542463946A8B200F0DFFD641E57
:104BA00071D0700605D5681C4246394680B200F0C7
:104BB000D5FD641E67D0B00605D5A81C424639460F
:104BC00080B200F0CBFD641E5DD0F00605D5E81C78
:104BD0004246394680B200F0C1FD641E53D0300712
:104BE00005D5281D4246394680B200F0B7FD641E47
:104BF00049D0700705D5681D4246394680B200F09D
:104C0000ADFD641E3FD0B00705D5A81D424639460C
:104C100080B200F0A3FD641E35D0F00705D0E81D7A
:104C20004246394680B200F099FD641E2BD005F152
:104C300008051AF8016FABE7300601D5424600E0DF
:104C40004A463946A8B200F089FD641E1BD07006A2
:104C500001D5424600E04A46681C394680B200F061
:104C60007DFD641E0FD0B00601D5424600E04A46E5
:104C7000A81C394680B200F071FD641E03D0F00616
:104C800002D5424601E080E04A46E81C394680B23F
:104C900000F064FD641E79D0300701D5424600E083
:104CA0004A46281D394680B200F058FD641E6DD07A
:104CB000700701D5424600E04A46681D394680B279
:104CC00000F04CFD641E61D0B00701D5424600E003
:104CD0004A46A81D394680B200F040FD641E55D0FA
:104CE000F00701D0424600E04A46E81D394680B24E
:104CF00000F034FD641E49D005F108051AF8016F73
:104D00009AE7300603D559462846FFF7D8FE641EB9
:104D10003CD0700603D55946681CFFF7D0FE641ED0
:104D200034D0B00603D55946A81CFFF7C8FE641E50
:104D30002CD0F00603D55946E81CFFF7C0FE641ED0
:104D400024D0300703D55946281DFFF7B8FE641E4E
:104D50001CD0700703D55946681DFFF7B0FE641ECE
:104D600014D0B00703D55946A81DFFF7A8FE641E4E
:104D70000CD0F00703D05946E81DFFF7A0FE641ED3
:104D800004D008351AF8016FBBE7FFE7BDE8F09FD4
:104D90002DE9F04706464A48DDE90849007C1578C8
:104DA00090468FB2B9F1000F4FEA807078D000289A
:104DB00003F0030005DAC0B3012843D002285DD117
:104DC0004EE020B101280BD002281FD113E0A90921
:104DD000B0B239F81120394600F0C0FC641E71D021
:104DE000C5F30111701C39F81120394680B200F06A
:104DF000B5FC641E66D0C5F38101B01C39F81120E2
:104E0000394680B200F0AAFC641E5BD005F00301B5
:104E1000F01C39F81120394680B200F09FFC641E66
:104E200050D018F8015F361DD1E7FFE715F0C00F2D
:104E300006D0A909B0B239F81120394600F08EFC2D
:104E4000641E3FD015F0300F08D0C5F30111701C5F
:104E500039F81120394680B200F080FC641E31D050
:104E600015F00C0F08D0C5F38101B01C39F81120E2
:104E7000394680B200F072FC641E7CD0A80708D0CE
:104E800005F00301F01C39F81120394680B200F01A
:104E900065FC641E6FD018F8015F361DC6E7FFE79A
:104EA000002803F0030005DA98B301283CD002285B
:104EB00052D145E038B101280CD002281CD112E0B3
:104EC0003823002057E0AA093946B0B200F046FC6A
:104ED000641E50D0701CC5F30112394680B200F038
:104EE0003DFC641E47D0B01CC5F38102394680B238
:104EF00000F034FC641E3ED0F01C05F0030239467D
:104F000080B200F02BFC641E35D018F8015F361D0E
:104F1000D9E7FFE715F0C00F04D0AA093946B0B2AF
:104F200000F01CFC641E26D015F0300F06D0701C5B
:104F3000C5F30112394680B200F010FC641E1AD08D
:104F400015F00C0F06D0B01CC5F38102394680B2B3
:104F500000F004FC641E0ED0A80706D0F01C05F07B
:104F60000302394680B200F0F9FB641E03D018F842
:104F7000015F361DCEE7BDE8F0872DE9F047054615
:104F8000AC48DDE90869007C147817461FFA81F8FF
:104F9000B9F1000F4FEA80703AD000284FEAC37091
:104FA00001DAC8B123E040B92109A8B239F81120CB
:104FB000414600F0D3FB761EDDD004F00F01681CE3
:104FC00039F81120414680B200F0C8FB761ED2D0DD
:104FD000AD1C17F8014FE7E7200906D02109A8B258
:104FE00039F81120414600F0B9FB761EC3D02007E6
:104FF00008D004F00F01681C39F81120414680B236
:1050000000F0ACFB761EB6D0AD1C17F8014FE3E7FD
:1050100000284FEAC37001DAA8B11DE030B92209B7
:105020004146A8B200F09AFB761EA4D0681C04F09A
:105030000F02414680B200F091FB761E9BD0AD1C62
:1050400017F8014FEBE7200904D022094146A8B226
:1050500000F084FB761E8ED0200706D0681C04F07A
:105060000F02414680B200F079FB761E83D0AD1C62
:1050700017F8014FE7E77EE72DE9F04104466D4858
:10508000DDF818801546007C1E4680078FB21BD4C1
:10509000B8F1000F0AD114E02878394638F810200A
:1050A000A0B200F05BFB761E641C6D1C002EF3DCCE
:1050B0003AE52A783946A0B200F050FB761E641C0F
:1050C0006D1C002EF5DC2FE5B8F1000F0BD116E0BA
:1050D000287828B138F810203946A0B200F03EFBFD
:1050E000761E641C6D1C002EF2DC1DE52A781AB1B8
:1050F0003946A0B200F032FB761E641C6D1C002EF7
:10510000F4DC11E52DE9F04104464A4815461E46F7
:10511000007C8FB2800708D513E02A883946A0B2F8
:1051200000F01CFB761E641CAD1C002EF5DCFBE4BD
:105130002A881AB13946A0B200F010FB761E641C12
:10514000AD1C002EF4DCEFE42DE9FF4F83B00D46DB
:10515000DDE91007DDE9124BDDF8509092461E465E
:10516000042830D005DC012809D0022818D10020FD
:1051700025E0082839D0102812D1002051E0002065
:105180000BE0CDE900A908EB05015B462246039838
:10519000FFF7CCFC3C4408F101008046B042F0DB54
:1051A00007B0BDE8F08FCDE900A908EB05015B462B
:1051B00022460398FFF7ECFD3C4408F101008046CD
:1051C000B042F0DBECE700200BE0CDE900A908EBF2
:1051D00005015B4622460398FFF7CFFE3C4408F1E9
:1051E00001008046B042F0DBDAE700200BE008EB7C
:1051F000050153462246CDF800900398FFF73CFF87
:105200003C4408F101008046B042F0DBC8E708EBFF
:105210000501534622460398FFF774FF3C4408F10A
:1052200001008046B042F2DBBAE7704770470020C9
:10523000704700003823002038B501210802FCF730
:1052400079F8012140F2E110FCF77DF84CF233705F
:10525000ADF8000003208DF8020018208DF803003F
:105260006946FE48FCF793FA4FF6F870FC4CADF82F
:10527000000069462046FCF78AFA012240212046B8
:10528000FCF7F2FA0120ADF800006946F548FCF79A
:105290007EFA4FF4A050ADF800006946F248FCF7E2
:1052A00076FA38BD00B597B000200421CDE9100191
:1052B0000F90149006211590CDE900101290102146
:1052C0001390CDE902010490059009020690CDE902
:1052D000070109900A900B900C900FA80D900E906A
:1052E0006846FBF7D1FA01210620FBF709FC17B04D
:1052F00000BD10B5FFF7A0FFBDE81040D2E74FF0AA
:10530000D8421080518070474FF0D84108804888BB
:105310007047D64841884FF0D840A1F5A842203ABE
:1053200002D140F2022100E02221018070474FF0BB
:10533000D84148807047CD4841884FF0D840A1F50A
:10534000A842203A02D140F2022100E0222101804D
:1053500041884088704710B50446C4480B464088D1
:10536000A0F5A841203908D121464FF40070FFF77D
:10537000C6FF194640F201200DE0190A0620FFF78A
:10538000BEFF19460720FFF7BAFF210A0220FFF7E8
:10539000B6FF21460320BDE81040B0E742F210728C
:1053A00003E00021491C9142FCD3401EF9D2704712
:1053B00000E0401E0028FCD170472DE9F05FFFF7A8
:1053C00098FF0520FFF7EAFF0520FFF7E7FF002021
:1053D000FFF79AFFA54B45F220444FF480775C809D
:1053E00039460120FFF78BFF39460220FFF787FF80
:1053F00041F208010320FFF782FF40F60801082070
:10540000FFF77DFF01210920FFF779FF10210B2015
:10541000FFF775FF00210C20FFF771FF00210F201F
:10542000FFF76DFF01210720FFF769FF132110200F
:10543000FFF765FF40F2015631461120FFF75FFF8D
:105440004FF4407841461220FFF759FF40F21E21E9
:105450002020FFF754FF40F2022529462120FFF7C4
:105460004EFFF9019020FFF74AFF41F2B071384634
:10547000FFF745FF40F2011C40F247116046FFF77D
:105480003EFF40F23511B81CFFF739FF4FF4E061E1
:10549000F81CFFF734FFFF1D00213846FFF72FFFF0
:1054A00001214FF48870FFF72AFF4FF4047900219F
:1054B0004846FFF724FF40F2112AEF215046FFF73C
:1054C0001EFF40F2122B00215846FFF718FF40F252
:1054D0008F1140F21320FFF712FF00217010FFF729
:1054E0000EFF042140F28120FFF709FF002140F266
:1054F0008220FFF704FF61464046FFF700FF40F6B9
:105500002C3140F20130FFF7FAFE41F2300140F257
:105510000230FFF7F4FE43F2100140F20330FFF7D0
:10552000EEFE42F60B414FF44170FFF7E8FE614694
:1055300040F20530FFF7E3FE40F6070140F2063087
:10554000FFF7DDFE4FF4E16140F20730FFF7D7FED1
:1055500039464FF44270FFF7D2FEB91E40F20930CF
:10556000FFF7CDFE40F6047140F20A30FFF7C7FEA8
:105570004FF4706140F20B30FFF7C1FE0F214FF482
:105580004370FFF7BCFE40F20F4140F20D30FFF7D1
:10559000B6FE414640F20E30FFF7B1FE40F2017117
:1055A00040F20F30FFF7ABFE4FF454514FF48060E0
:1055B000FFF7A5FE012140F20140FFF7A0FE002108
:1055C0006800FFF79CFE0021701EFFF798FE002187
:1055D0003046FFF794FE0021701CFFF790FE00217B
:1055E000B01CFFF78CFE0021F01CFFF788FE0021A5
:1055F000301DFFF784FE00214FF4C060FFF77FFEEF
:10560000002140F20660FFF77AFE00214FF4DE60D1
:10561000FFF775FE21464FF4FE642046FFF76FFE4C
:10562000002140F2DE70FFF76AFEDF21A01CFFF7C9
:1056300066FE4FF40161E01CFFF761FE7721201D3B
:10564000FFF75DFE2121601DFFF759FE0021204676
:10565000FFF755FE40F27311072009E000140140E6
:1056600000180140001C0140002001408000002083
:10567000FFF745FE00214846FFF741FEEF21504667
:10568000FFF73DFE00215846FFF739FE40F28F112B
:1056900040F21320FFF733FE4FF4007C00216046F8
:1056A000FFF72DFE6F1E00213846FFF728FE4FF052
:1056B000D844258041F23426668000216046FFF7F9
:1056C0001EFE00213846FFF71AFE2580608860889C
:1056D000B04201D1012000E0002018704CF250309F
:1056E000401E0004000CFBD1BDE8F09F70B5002403
:1056F00005462146204608F005F9FFF70AFE6148F5
:105700004088A0F5A841203901D15F4901E04FF45C
:1057100096314FF0D84001E04580641C8C42FBD3A9
:1057200070BDC0F34511C20AC00200EB4110104425
:1057300080B2704710B508F0E5F852484188A1F5ED
:10574000A842203A02D10078012804D0FFF7F3FDE7
:10575000BDE81040E5E7BDE81040ECE510B51446A3
:10576000484A5288A2F5A843203B03D1B0F5C87F30
:105770000CD802E0B0F5A07F08D8F02906D808F0D0
:10578000C1F8FFF7C6FD4FF0D840448010BD2DE9A9
:10579000F04107463B488846069C40881546A0F5E0
:1057A000A84120391E464146384614D108F0AAF8CF
:1057B00040F2122339461846FFF7A1FD41464FF447
:1057C0000470FFF79CFD294640F21320FFF797FD78
:1057D000314618460FE008F095F839465020FFF79B
:1057E0008EFD41465220FFF78AFD29465120FFF7E2
:1057F00086FD31465320FFF782FD4146384608F0CA
:1058000081F8FFF786FD00204FF0D842754303E092
:1058100034F8021B5180401C8542F9D8BDE8F08164
:105820002DE9FF5F074600251001DFF860B08A46CA
:10583000A0F5007909EB050100241BF801800AEBB3
:105840000506C4F1070128FA01F0C00707EB0400C0
:10585000B1B280B201D0039A00E00E9AFFF77EFF4A
:10586000641CA4B2082CECD36D1CADB2102DE1D396
:10587000BDE8FF9F06494FF4005208B10A61704726
:105880004A6170478000002000770100B8E40008FA
:1058900000100140C0F3C401C0F38522C0F3C4402E
:1058A00000EB421000EBC12070474FF6FF707047CD
:1058B0001F2300F01F02C0F3451110B5C0F3C42030
:1058C000C0EB0020C1EB01213F24B0FBF3F0B1FBA2
:1058D000F4F1C2EB0222B2FBF3F200EB012000EB89
:1058E000024010BD4FF4C8707047F02070474FF46D
:1058F000C8707047F0207047102070474FF4803018
:105900007047012070470120704740F235207047F2
:105910002DE9F041002806D086681EB10568B5F56E
:10592000807F02DD0020BDE8F0810024074F06E003
:1059300056F8240000F0F3F927F81400641CAC4278
:10594000F6DB0248EFE7E3E770470000981F00200E
:1059500010B5064C606B00F0E2F900F05BF8A06B4C
:1059600000F0DDF9BDE8104000F05DB838230020FC
:105970001CB504460548C06C026A68469047034857
:105980006A462146083002F047FF1CBD382300203C
:10599000054801680548C1640021A0F8501000F1D5
:1059A0000801416100F09CB98400002038230020E8
:1059B00008487047FFF76EBFFFF77ABFFFF775BF64
:1059C00000210180418040F28F118180EF21C18050
:1059D00070470000B158000830B40D4CB4F90830DD
:1059E000834213DCB4F90C3083420FDBB4F90A3084
:1059F0008B4200DD1946B4F90E30934200DA1A46A4
:105A00008A4203DBE36C5B6930BC184730BC7047EB
:105A10003823002010B50446012000F0A0F9D34936
:105A200021F8104010BD10B50446002000F097F991
:105A3000CE4921F8104010BDCC4910B50246087C73
:105A400080EA02035B0703D50B884C880C804B80EF
:105A50000A7410BDC54A30B4B2F90A308B4217DC63
:105A6000B2F90E308B4213DBB2F9083083420FDCFF
:105A7000B2F90C3083420BDB137CDC071346DB6C82
:105A800002D09A6A30BC104752885B6A30BC184713
:105A900030BC704730B4B54CB4F90A308B42F7DCF7
:105AA000B4F90E308B42F3DBB4F90830834200DDE9
:105AB0001846B4F90C30934200DA1A468242E7DB0A
:105AC000E36C1B6930BC1847E2E730B4A74DB5F969
:105AD0000840844200DD2046B5F90C40944200DACB
